:040000006BEF27F08B
:104E7800C69A1200C5801200C5841200C58AC5886A
:104E88001200C5CF43F01F0E4316D8A4FAD7C7A403
:104E98001200F7D7C6500F0B080AD8B404D0C65072
:104EA8000F0B0B0AD8B4C586C7A0FED7C95012008D
:104EB800446E3F0EC716000EC66E000EC56E4450F7
:104EC800C6124350C71294869488C68A120000EE10
:104ED80080F0740EEE6AE806FDE100EE01F0420E85
:104EE800EE6AE806FDE1000EF86E000180EF39F089
:104EF80043504502F3CF47F0F4CF48F04350460201
:104F0800F350482644504502F350482647C043F022
:104F180048C044F01200466EC9CF45F04650EFEC49
:104F280027F0476E486A47BE4806472806E14828E2
:104F3800D8A403D0C9CF45F0C69E47504810D8B46E
:104F48001200ECD74BC051F04CC052F049C04FF0A2
:104F58004AC050F010D051C0D9FF52C0DAFFDF501C
:104F6800536E514A522A4FC0D9FF50C0DAFF53C07E
:104F7800DFFF4F4A502A4D06D8A04E064D28EBE1D8
:104F88004E28D8B41200E7D720D04EEC27F049C0FD
:104F9800D9FF4AC0DAFFDF6E494A4A2AC5B6FED7AA
:104FA800A1A602D0FF0E1200C6500F0B080AD8B4F3
:104FB80005D0C6500F0B0B0AD8A407D04B50D8B455
:104FC80004D0C59AC588C5B8FED74B064B28D8A4C7
:104FD800DCD7000E1200446E44C0C9FFC6AE02D032
:104FE800FF0E1200C6500F0B080AD8B40FD0C650D7
:104FF8000F0B0B0AD8B40AD0C6889EA6FED7C7A442
:10500800C7B002D0FE0E1200000E1200C6500F0BE1
:10501800080AD8B405D0C6500F0B0B0AD8A4120042
:10502800C7B0FED745EC27F0C5AC02D0FE0E120083
:10503800000E1200000E486E46AE06D0456C461EA5
:10504800D8B0462A010E486E44AE06D0436C441EC2
:10505800D8B0442A010E481A000E4A6E000E496E56
:1050680045504610D8B41CD0010E476E04D0D890D5
:1050780045364636472A46AEFAD7D89049364A3694
:105088004550435C46504458D8A005D04550435E2F
:105098004650445A4980D89046324532472EEDD77B
:1050A8004850D8B404D0496C4A1ED8B04A2A49C0DE
:1050B80043F04AC044F01200556E55C049F0493AD1
:1050C8000F0E49164950516E526A55C049F00F0EDD
:1050D80049164950536E546A51C043F052C044F0C7
:1050E800000E466E1D0E456E7CEC27F0DF0E532435
:1050F800F66E7F0E5420F76E0800F5CF49F0493858
:105108000F0B4A6E4B6A010E4A26000E4B22800E88
:105118004C6E000E4D6E4A504C264B504D2243505B
:105128004C24D96E44504D20DA6EDF504E6EDF0E9F
:105138005324F66E7F0E5420F76E0800F5CF4FF01B
:105148000F0E4F16010E506E4F2A02D0D8905036CF
:105158004F2EFCD750504E141200556E55C049F0D2
:10516800493A0F0E49164950516E526A55C049F0D6
:105178000F0E49164950536E546A51C043F052C03D
:1051880044F0000E466E1D0E456E7CEC27F0DF0ED7
:105198005324F66E7F0E5420F76E0800F5CF49F0C1
:1051A80049380F0B4A6E4B6A070E4A26000E4B22EF
:1051B800800E4C6E000E4D6E4A504C264B504D22C0
:1051C80043504C24D96E44504D20DA6EDF504E6E59
:1051D800DF0E5324F66E7F0E5420F76E0800F5CFCD
:1051E8004FF00F0E4F16010E506E4F2A02D0D89076
:1051F80050364F2EFCD750504E141200556E55C0E5
:1052080049F0493A0F0E49164950516E526A55C035
:1052180049F00F0E49164950536E546AEF0E532445
:10522800F66E7F0E5420F76E0800F5CF49F00F0E8A
:105238004916010E4A6E000E4B6E492A03D0D890CB
:105248004A364B36492EFBD751C043F052C044F082
:10525800000E466E1D0E456E7CEC27F0EF0E5324B3
:10526800F66E7F0E5420F76E0800F5CF4CF04C38E0
:105278000F0B4D6E4E6AD8904D364E360D0E4D269C
:10528800000E4E22800E4F6E000E506E4D504F266F
:105298004E50502243504F24D96E44505020DA6E5D
:1052A8004A50DE124B50DD121200576E57C049F0BB
:1052B800493A0F0E49164950536E546A57C049F07F
:1052C8000F0E49164950556E566AEF0E5524F66E64
:1052D8007F0E5620F76E0800F5CF49F00F0E4916DD
:1052E800010E4A6E000E4B6E492A03D0D8904A36FA
:1052F8004B36492EFBD74A1C4C6E4B1C4D6E53C087
:1053080043F054C044F0000E466E1D0E456E7CEC12
:1053180027F0EF0E5524F66E7F0E5620F76E080024
:10532800F5CF4EF04E380F0B4F6E506AD8904F366F
:1053380050360D0E4F26000E5022800E516E000E74
:10534800526E4F5051265050522243505124D96E1C
:1053580044505220DA6E4C50DE164D50DD161200C5
:10536800000E526E000E516E52BE08D0525005E12A
:10537800040E515CD8B0120001D0120045EC27F0A1
:105388003EEC27F045EC27F051C043F052C044F002
:10539800000E466E1D0E456E7CEC27F0800E4324F1
:1053A800D96E000E4420DA6EDF508FEC27F045EC02
:1053B80027F0000E8FEC27F045EC27F0000E506E1A
:1053C800000E4F6E50BE06D050505AE1080E4F5C8A
:1053D800D8B056D051C043F052C044F0000E466ECB
:1053E8001D0E456E7CEC27F04FC049F050C04AF0C6
:1053F800D89049364A360D0E4926000E4A22800EAC
:105408004B6E000E4C6E49504B264A504C2243506E
:105418004B24D96E44504C20DA6EDF508FEC27F0C5
:1054280051C043F052C044F0000E466E1D0E456E4A
:105438007CEC27F04FC049F050C04AF0D89049366C
:105448004A360D0E4926000E4A22800E4B6E000E7B
:105458004C6E49504B264A504C2243504B24D96E2F
:1054680044504C20DA6EDECF4DF0DDCF4EF04EC00A
:105478004DF04E6A4D508FEC27F04F4A502AA2D774
:1054880040EC27F0514A522A52BE78D7525001E1D7
:105498006FD712005C6E000E5E6E000E5F6E000E1F
:1054A8005D6E000E5E6E030E5E6401D01200000E8B
:1054B8005F6E030E5F6401D046D05850100DFD0E8C
:1054C800596E790E5A6EF3505926F4505A225E508E
:1054D800040DF3505926F4505A225F50010DF35031
:1054E8005926F4505A2259C0F6FF5AC0F7FF08004F
:1054F800F550640AD8B425D05850100DFD0E596ED9
:10550800790E5A6EF3505926F4505A225E50040D03
:10551800F3505926F4505A225F50010DF350592682
:10552800F4505A2259C0F6FF5AC0F7FF0800F5CFC9
:105538005BF05C50100DF3505B245D6E5D5002EC27
:1055480029F05F2AB6D7B4EC29F0410E596EEE0E59
:10555800E82EFED7592EFCD700D0000E5F6E030E42
:105568005F6401D046D05850100DFD0E596E790E6B
:105578005A6EF3505926F4505A225E50040DF350D7
:105588005926F4505A225F50010DF3505926F45011
:105598005A2259C0F6FF5AC0F7FF0800F550640AAE
:1055A800D8B425D05850100DFD0E596E790E5A6E8C
:1055B800F3505926F4505A225E50040DF3505926E0
:1055C800F4505A225F50010DF3505926F4505A22D4
:1055D80059C0F6FF5AC0F7FF0800F5CF5BF05C50E2
:1055E800100DF3505B245D6E5D5059EC29F05F2A75
:1055F800B6D7B4EC29F05E2A56D7000E616E000EBD
:10560800606E61BE08D0615005E1040E605CD8B0E0
:10561800E5D001D0E3D060C043F061C044F0000E93
:10562800466E1D0E456E7CEC27F0070E4326000ED5
:105638004422800E4324496E000E44204A6E60C006
:1056480043F061C044F0000E466E1D0E456E7CECC2
:1056580027F0010E4326000E4422800E43244B6E91
:10566800000E44204C6E000E4E6E060E4D6EA6ECDB
:1056780027F045EC27F03EEC27F045EC27F060C01A
:1056880043F061C044F0000E466E1D0E456E7CEC82
:1056980027F0800E4324D96E000E4420DA6EDF50C6
:1056A8008FEC27F045EC27F0400E8FEC27F045EC07
:1056B80027F040EC27F045EC27F03EEC27F045ECCE
:1056C80027F060C043F061C044F0000E466E1D0E26
:1056D800456E7CEC27F0800E4324D96E000E4420E2
:1056E800DA6EDF5001098FEC27F045EC27F060C037
:1056F80043F061C044F0000E466E1D0E456E7CEC12
:1057080027F0010E4326000E4422800E4324496EE2
:10571800000E44204A6E060E4B6EC8EC27F00009B6
:10572800D8A4E5D742EC27F040EC27F0000E5F6ED6
:10573800000E5E6E5FBE06D05F5049E1060E5E5CED
:10574800D8B045D060C043F061C044F0000E466E4A
:105758001D0E456E7CEC27F0070E5E24546E000E7D
:105768005F20556E800E566E000E576E54505626AA
:105778005550572243505624D96E44505720DA6E5C
:1057880060C043F061C044F0000E466E1D0E456EC9
:105798007CEC27F0010E5E24596E000E5F205A6ED5
:1057A800800E5B6E000E5C6E59505B265A505C2270
:1057B80043505B24E16E44505C20E26EDE50E618F4
:1057C800D8B402D0010E12005E4A5F2AB3D7604AED
:1057D800612A61BE20D7615001E117D7000E12007F
:1057E800666EFF0E66245E6E5F6AFF0E5F22010E14
:1057F8006624606E616A000E6122FF0E5824626E94
:10580800636AFF0E6322010E5824646E656A000EF7
:1058180065226650080DF90E596E7E0E5A6EF350C9
:105828005926F4505A225850010DF3505926F45075
:105838005A2259C0F6FF5AC0F7FF0800F55002EC8B
:1058480029F0B4EC29F0340E596EF20EE82EFED78A
:10585800592EFCD76650080DF90E596E7E0E5A6EF9
:10586800F3505926F4505A225850010DF350592636
:10587800F4505A2259C0F6FF5AC0F7FF0800F550F5
:1058880059EC29F0B4EC29F0000E5D6E070E5D644A
:1058980001D012005FBE23D05850010D5EC059F0F0
:1058A8005FC05AF0D89059365A36D89059365A3679
:1058B800D89059365A36F90E5B6E7E0E5C6E59508A
:1058C8005B265A505C22F3505B26F4505C225BC086
:1058D800F6FF5CC0F7FF0800F55002EC29F061BE46
:1058E80006D0615027E1080E605CD8B023D058502C
:1058F800010D60C059F061C05AF0D89059365A3637
:10590800D89059365A36D89059365A36F90E5B6EB1
:105918007E0E5C6E59505B265A505C22F3505B2613
:10592800F4505C225BC0F6FF5CC0F7FF0800F5503E
:1059380002EC29F063BE16D06650080DF90E596EB8
:105948007E0E5A6EF3505926F4505A226250592648
:1059580063505A2259C0F6FF5AC0F7FF0800F550A5
:1059680002EC29F065BE06D065501AE1080E645CA9
:10597800D8B016D06650080DF90E596E7E0E5A6EC4
:10598800F3505926F4505A226450592665505A2229
:1059980059C0F6FF5AC0F7FF0800F55002EC29F08D
:1059A800B4EC29F0340E596EF20EE82EFED7592EBB
:1059B800FCD75850010D5EC059F05FC05AF0D8901E
:1059C80059365A36D89059365A36D89059365A36A2
:1059D800F90E5B6E7E0E5C6E59505B265A505C2247
:1059E800F3505B26F4505C225BC0F6FF5CC0F7FF07
:1059F8000800F55059EC29F05850010D60C059F0D5
:105A080061C05AF0D89059365A36D89059365A3615
:105A1800D89059365A36F90E5B6E7E0E5C6E595028
:105A28005B265A505C22F3505B26F4505C225BC024
:105A3800F6FF5CC0F7FF0800F55059EC29F06650F6
:105A4800080DF90E596E7E0E5A6EF3505926F45011
:105A58005A226250592663505A2259C0F6FF5AC03A
:105A6800F7FF0800F55059EC29F06650080DF90EBB
:105A7800596E7E0E5A6EF3505926F4505A226450CD
:105A8800592665505A2259C0F6FF5AC0F7FF080038
:105A9800F55059EC29F0B4EC29F05E06D8A05F0661
:105AA800604A612A6206D8A06306644A652A5D2AAC
:105AB800EDD65E6E000E606E000E5F6E5E04D8A4BA
:105AC80040D058C060F024D06050010D8B0EF324F4
:105AD800F66E7F0EF420F76E0800F55002EC29F000
:105AE800B4EC29F0340E596EF20EE82EFED7592E7A
:105AF800FCD76050010D8B0EF324F66E7F0EF42058
:105B0800F76E0800F55059EC29F0B4EC29F0602A3A
:105B18005850596E5A6A591E5A1E594A5A2A280EFE
:105B28005926000E5A2260505B6E5C6A59505B5CC5
:105B38005C50800A5D6E5A50800A5D58D8B01200D9
:105B4800C3D7020E5E18D8A42ED058500008270FCD
:105B5800606E24D06050010D8B0EF324F66E7F0E1C
:105B6800F420F76E0800F55002EC29F0B4EC29F0A7
:105B7800340E596EF20EE82EFED7592EFCD760501F
:105B8800010D8B0EF324F66E7F0EF420F76E0800DD
:105B9800F55059EC29F0B4EC29F060065850605CD7
:105BA800D8A01200D7D7030E5E18D8A440D058C08A
:105BB80060F024D06050010D630EF324F66E7F0E62
:105BC800F420F76E0800F55002EC29F0B4EC29F047
:105BD800340E596EF20EE82EFED7592EFCD76050BF
:105BE800010D630EF324F66E7F0EF420F76E0800A5
:105BF800F55059EC29F0B4EC29F0602A5850596E48
:105C08005A6A591E5A1E594A5A2A280E5926000EEF
:105C18005A2260505B6E5C6A59505B5C5C50800A2B
:105C28005D6E5A50800A5D58D8B01200C3D7040E72
:105C38005E18D8A42ED058500008270F606E24D0C4
:105C48006050010D630EF324F66E7F0EF420F76E9C
:105C58000800F55002EC29F0B4EC29F0340E596E26
:105C6800F20EE82EFED7592EFCD76050010D630EB8
:105C7800F324F66E7F0EF420F76E0800F55059EC09
:105C880029F0B4EC29F060065850605CD8A01200E6
:105C9800D7D7050E5E18D8A4120058C060F0050EBC
:105CA800606401D01200000E5F6E130E5F6401D0B5
:105CB80033D06050140DD50E596E7B0E5A6EF350CA
:105CC8005926F4505A225F50010DF3505926F450CA
:105CD8005A2259C0F6FF5AC0F7FF0800F550640A67
:105CE800D8B418D06050140DD50E596E7B0E5A6E6C
:105CF800F3505926F4505A225F50010DF35059269B
:105D0800F4505A2259C0F6FF5AC0F7FF0800F55060
:105D180002EC29F05F2AC9D7B4EC29F0410E596E7C
:105D2800EE0EE82EFED7592EFCD700D0000E5F6E7F
:105D3800130E5F6401D033D06050140DD50E596E28
:105D48007B0E5A6EF3505926F4505A225F50010DBB
:105D5800F3505926F4505A2259C0F6FF5AC0F7FF9B
:105D68000800F550640AD8B418D06050140DD50E48
:105D7800596E7B0E5A6EF3505926F4505A225F50D2
:105D8800010DF3505926F4505A2259C0F6FF5AC053
:105D9800F7FF0800F55059EC29F05F2AC9D7B4EC91
:105DA80029F0602A7CD75C6E000E5E6E000E5D6E78
:105DB800000E5F6E5C50D8A45CD0000E5E6E0F0EB5
:105DC8005E6401D012005E50040D390EF324F66EA5
:105DD8007E0EF420F76E0800F5505818D8A447D066
:105DE800000E5D6E030E5D6401D03ED05E50040D62
:105DF800390E5A6E7E0E5B6EF3505A26F4505B22B3
:105E08005D50010DF3505A26F4505B225AC0F6FF3C
:105E18005BC0F7FF0800F5CF5FF05F50010D010E82
:105E2800F324D96E000EF420DA6EDF50D8A40DD01A
:105E38005F5002EC29F05F50010D010EF324D96E7A
:105E4800000EF420DA6E010E0CD05F5059EC29F0E8
:105E58005F50010D010EF324D96E000EF420DA6EA6
:105E6800000EDF6E5D2ABED7B4EC29F012005E2A60
:105E7800A6D75C04D8A45DD0000E5E6E0F0E5E64DB
:105E880001D012005E50040D390EF324F66E7E0E1A
:105E9800F420F76E0800F5505818D8A448D0000E22
:105EA8005D6E030E5D6401D03FD05E50040D390E67
:105EB8005A6E7E0E5B6EF3505A26F4505B225D508C
:105EC800010DF3505A26F4505B225AC0F6FF5BC00E
:105ED800F7FF0800F550100F5F6E5F50010D010EBF
:105EE800F324D96E000EF420DA6EDF50D8A40DD05A
:105EF8005F5002EC29F05F50010D010EF324D96EBA
:105F0800000EF420DA6E010E0CD05F5059EC29F027
:105F18005F50010D010EF324D96E000EF420DA6EE5
:105F2800000EDF6E5D2ABDD7B4EC29F012005E2AA0
:105F3800A5D7020E5C18D8A45DD0000E5E6E0F0EB9
:105F48005E6401D012005E50040D390EF324F66E23
:105F58007E0EF420F76E0800F5505818D8A448D0E3
:105F6800000E5D6E030E5D6401D03FD05E50040DDF
:105F7800390E5A6E7E0E5B6EF3505A26F4505B2231
:105F88005D50010DF3505A26F4505B225AC0F6FFBB
:105F98005BC0F7FF0800F550200F5F6E5F50010DE2
:105FA800010EF324D96E000EF420DA6EDF50D8A467
:105FB8000DD05F5002EC29F05F50010D010EF32463
:105FC800D96E000EF420DA6E010E0CD05F5059EC39
:105FD80029F05F50010D010EF324D96E000EF42054
:105FE800DA6E000EDF6E5D2ABDD7B4EC29F0120020
:105FF8005E2AA5D7030E5C18D8A41200000E5E6EA8
:106008000F0E5E6401D012005E50040D390EF324A9
:10601800F66E7E0EF420F76E0800F5505818D8A4D6
:1060280048D0000E5D6E030E5D6401D03FD05E5017
:10603800040D390E5A6E7E0E5B6EF3505A26F450DC
:106048005B225D50010DF3505A26F4505B225AC072
:10605800F6FF5BC0F7FF0800F550300F5F6E5F502A
:10606800010D010EF324D96E000EF420DA6EDF5014
:10607800D8A40DD05F5002EC29F05F50010D010E3D
:10608800F324D96E000EF420DA6E010E0CD05F50A6
:1060980059EC29F05F50010D010EF324D96E000E62
:1060A800F420DA6E000EDF6E5D2ABDD7B4EC29F05D
:1060B80012005E2AA5D75A6E000E5B6E000E5C6E4B
:1060C8000F0E5A18D8B43CD01C0E5A18D8B438D071
:1060D800230E5A18D8B434D0300E5A18D8B430D049
:1060E8000A0E5A18D8B42CD00B0E5A18D8B428D087
:1060F800180E5A18D8B424D0190E5A18D8B420D06B
:106108000E0E5A18D8B41CD0220E5A18D8B418D06B
:10611800260E5A18D8B414D0270E5A18D8B410D04E
:10612800340E5A18D8B40CD0350E5A18D8B408D032
:106138001D0E5A18D8B404D0310E5A18D8A46CD0F1
:10614800000E5B6E030E5B6401D01200000E5C6EE5
:106158001C0E5C6401D033D05B501D0D4D0E586E83
:106168007C0E596EF3505826F45059225C50010D9C
:10617800F3505826F450592258C0F6FF59C0F7FF7B
:106188000800F550640AD8B418D05B501D0D4D0EA8
:10619800586E7C0E596EF3505826F45059225C50B4
:1061A800010DF3505826F450592258C0F6FF59C033
:1061B800F7FF0800F55002EC29F05C2AC9D7B4ECC7
:1061C80029F0340E586EF20EE82EFED7582EFCD762
:1061D800000E5C6E1C0E5C6401D01AD05B501D0D65
:1061E8004D0E586E7C0E596EF3505826F4505922B5
:1061F8005C50010DF3505826F450592258C0F6FF50
:1062080059C0F7FF0800F55059EC29F05C2AE2D78D
:10621800B4EC29F05B2A96D741504210D8A48BD011
:10622800000E5B6E080E5B6401D080D0000E5C6EC1
:10623800170E5C6401D033D05B50180DFD0E586EFC
:106248007A0E596EF3505826F45059225C50010DBD
:10625800F3505826F450592258C0F6FF59C0F7FF9A
:106268000800F550640AD8B418D05B50180DFD0E1C
:10627800586E7A0E596EF3505826F45059225C50D5
:10628800010DF3505826F450592258C0F6FF59C052
:10629800F7FF0800F55002EC29F05C2AC9D7B4ECE6
:1062A80029F0410E586EEE0EE82EFED7582EFCD778
:1062B80000D0000E5C6E170E5C6401D033D05B50CA
:1062C800180DFD0E586E7A0E596EF3505826F4507C
:1062D80059225C50010DF3505826F450592258C0E9
:1062E800F6FF59C0F7FF0800F550640AD8B418D073
:1062F8005B50180DFD0E586E7A0E596EF3505826E5
:10630800F45059225C50010DF3505826F45059228C
:1063180058C0F6FF59C0F7FF0800F55059EC29F0AE
:106328005C2AC9D7B4EC29F05B2A7CD7000E426EF0
:10633800010E416E120041044210D8A41200080E4A
:106348005B6E000E5C6E170E5C6401D033D05B5040
:10635800180DFD0E586E7A0E596EF3505826F450EB
:1063680059225C50010DF3505826F450592258C058
:10637800F6FF59C0F7FF0800F550640AD8B418D0E2
:106388005B50180DFD0E586E7A0E596EF350582654
:10639800F45059225C50010DF3505826F4505922FC
:1063A80058C0F6FF59C0F7FF0800F55002EC29F075
:1063B8005C2AC9D7B4EC29F0410E586EEE0EE82ECF
:1063C800FED7582EFCD700D0000E5C6E170E5C640A
:1063D80001D033D05B50180DFD0E586E7A0E596EF1
:1063E800F3505826F45059225C50010DF3505826AA
:1063F800F450592258C0F6FF59C0F7FF0800F5506D
:10640800640AD8B418D05B50180DFD0E586E7A0E79
:10641800596EF3505826F45059225C50010DF35030
:106428005826F450592258C0F6FF59C0F7FF080003
:10643800F55059EC29F05C2AC9D7B4EC29F05B0671
:1064480080D75B6E000E5C6E000E5D6E585002ECDD
:1064580029F0B4EC29F05B50D8A485D0000E5C6E0E
:10646800070E5C6401D01BD2000E5D6E070E5D64E2
:1064780001D033D05C50080DB90E596E7E0E5A6E9D
:10648800F3505926F4505A225D50010DF350592605
:10649800F4505A2259C0F6FF5AC0F7FF0800F550C9
:1064A800640AD8B418D05C50080DB90E596E7E0E27
:1064B8005A6EF3505926F4505A225D50010DF3508C
:1064C8005926F4505A2259C0F6FF5AC0F7FF08005F
:1064D800F55002EC29F05D2AC9D7B4EC29F0340E46
:1064E800596EF20EE82EFED7592EFCD7000E5D6EBF
:1064F800070E5D6401D033D05C50080DB90E596E9B
:106508007E0E5A6EF3505926F4505A225D50010DF2
:10651800F3505926F4505A2259C0F6FF5AC0F7FFD3
:106528000800F550640AD8B418D05C50080DB90EAC
:10653800596E7E0E5A6EF3505926F4505A225D5009
:10654800010DF3505926F4505A2259C0F6FF5AC08B
:10655800F7FF0800F55059EC29F05D2AC9D7B4ECCB
:1065680029F05C2A7DD75B04D8A486D0000E5C6E27
:106578000B0E5C6401D093D1000E5D6E070E5D6456
:1065880001D033D05C50080D890E596E7D0E5A6EBD
:10659800F3505926F4505A225D50010DF3505926F4
:1065A800F4505A2259C0F6FF5AC0F7FF0800F550B8
:1065B800640AD8B418D05C50080D890E596E7D0E47
:1065C8005A6EF3505926F4505A225D50010DF3507B
:1065D8005926F4505A2259C0F6FF5AC0F7FF08004E
:1065E800F55002EC29F05D2AC9D7B4EC29F0270E42
:1065F800596EF50EE82EFED7592EFCD700F0000E86
:106608005D6E070E5D6401D033D05C50080D890EB5
:10661800596E7D0E5A6EF3505926F4505A225D5029
:10662800010DF3505926F4505A2259C0F6FF5AC0AA
:10663800F7FF0800F550640AD8B418D05C50080D6C
:10664800890E596E7D0E5A6EF3505926F4505A220F
:106658005D50010DF3505926F4505A2259C0F6FFE7
:106668005AC0F7FF0800F55059EC29F05D2AC9D740
:10667800B4EC29F05C2A7CD7020E5B18D8A486D02B
:10668800000E5C6E0B0E5C6401D009D1000E5D6ECD
:10669800070E5D6401D033D05C50080D890E596E29
:1066A8007D0E5A6EF3505926F4505A225D50010D52
:1066B800F3505926F4505A2259C0F6FF5AC0F7FF32
:1066C8000800F550640AD8B418D05C50080D290E9B
:1066D800596E7D0E5A6EF3505926F4505A225D5069
:1066E800010DF3505926F4505A2259C0F6FF5AC0EA
:1066F800F7FF0800F55002EC29F05D2AC9D7B4EC81
:1067080029F0270E596EF50EE82EFED7592EFCD724
:1067180000F0000E5D6E070E5D6401D033D05C5052
:10672800080D890E596E7D0E5A6EF3505926F45095
:106738005A225D50010DF3505926F4505A2259C07F
:10674800F6FF5AC0F7FF0800F550640AD8B418D00D
:106758005C50080D290E596E7D0E5A6EF35059265D
:10676800F4505A225D50010DF3505926F4505A2224
:1067780059C0F6FF5AC0F7FF0800F55059EC29F048
:106788005D2AC9D7B4EC29F05C2A7CD7030E5B18C4
:10679800D8A485D0000E5C6E070E5C6401D07FD053
:1067A800000E5D6E070E5D6401D033D05C50080D9D
:1067B800290E596E7D0E5A6EF3505926F4505A22FE
:1067C8005D50010DF3505926F4505A2259C0F6FF76
:1067D8005AC0F7FF0800F550640AD8B418D05C50C6
:1067E800080D790E596E7E0E5A6EF3505926F450E4
:1067F8005A225D50010DF3505926F4505A2259C0BF
:10680800F6FF5AC0F7FF0800F55002EC29F05D2AA0
:10681800C9D7B4EC29F0340E596EF20EE82EFED723
:10682800592EFCD7000E5D6E070E5D6401D033D083
:106838005C50080D290E596E7D0E5A6EF35059267C
:10684800F4505A225D50010DF3505926F4505A2243
:1068580059C0F6FF5AC0F7FF0800F550640AD8B4CB
:1068680018D05C50080D790E596E7E0E5A6EF35092
:106878005926F4505A225D50010DF3505926F45010
:106888005A2259C0F6FF5AC0F7FF0800F55059ECD4
:1068980029F05D2AC9D7B4EC29F05C2A7DD7585075
:1068A80059EC29F0B4EC29F012005E6E000E626E0D
:1068B800000E636E000E616E000E606E000E5F6E5D
:1068C80058C05AF0030E5A165A505C6E5D6A000E94
:1068D800626E070E626401D030D0000E636E070E40
:1068E800636401D028D06250080DF90E5A6E7E0EEE
:1068F8005B6EF3505A26F4505B226350010DF3503F
:106908005A26F4505B225AC0F6FF5BC0F7FF080016
:10691800F5505918D8A40DD06250080DF90EF3247B
:10692800F66E7E0EF420F76E0800F5505F6E606A12
:1069380002D0632AD4D7622ACCD75E50D8A48CD090
:106948005CC062F0070E626401D01200000E636E34
:10695800020E636401D036D06250030DB30E5A6E36
:106968007F0E5B6EF3505A26F4505B226350010D84
:10697800F3505A26F4505B225AC0F6FF5BC0F7FF6B
:106988000800F550640AD8B41BD06250030DB30E4A
:106998005A6E7F0E5B6EF3505A26F4505B2263509A
:1069A800010DF3505A26F4505B225AC0F6FF5BC023
:1069B800F7FF0800F5505F24616E615002EC29F082
:1069C800632AC6D7B4EC29F0270E5A6EF50EE82EC6
:1069D800FED75A2EFCD700F0000E636E020E6364D9
:1069E80001D036D06250030DB30E5A6E7F0E5B6E27
:1069F800F3505A26F4505B226350010DF3505A2687
:106A0800F4505B225AC0F6FF5BC0F7FF0800F55050
:106A1800640AD8B41BD06250030DB30E5A6E7F0EB1
:106A28005B6EF3505A26F4505B226350010DF3500D
:106A38005A26F4505B225AC0F6FF5BC0F7FF0800E5
:106A4800F5505F24616E615059EC29F0632AC6D76E
:106A5800B4EC29F0622A76D75E04D8A488D05C50BA
:106A6800020F626E000E636E020E636401D036D0B0
:106A78006250030DB30E5A6E7F0E5B6EF3505A26AA
:106A8800F4505B226350010DF3505A26F4505B22F8
:106A98005AC0F6FF5BC0F7FF0800F550640AD8B487
:106AA8001BD06250030DB30E5A6E7F0E5B6EF3500F
:106AB8005A26F4505B226350010DF3505A26F450C5
:106AC8005B225AC0F6FF5BC0F7FF0800F5505F2451
:106AD800616E615002EC29F0632AC6D7B4EC29F044
:106AE800340E5A6EF20EE82EFED75A2EFCD7000E40
:106AF800636E020E636401D036D06250030DB30E8C
:106B08005A6E7F0E5B6EF3505A26F4505B22635028
:106B1800010DF3505A26F4505B225AC0F6FF5BC0B1
:106B2800F7FF0800F550640AD8B41BD06250030D73
:106B3800B30E5A6E7F0E5B6EF3505A26F4505B22EA
:106B48006350010DF3505A26F4505B225AC0F6FFE9
:106B58005BC0F7FF0800F5505F24616E615059EC87
:106B680029F0632AC6D7B4EC29F062067BD7020E57
:106B78005E18D8A48BD05CC062F0060E626401D0A7
:106B88001200000E636E020E636401D036D06250AC
:106B9800030DB30E5A6E7F0E5B6EF3505A26F450F7
:106BA8005B226350010DF3505A26F4505B225AC001
:106BB800F6FF5BC0F7FF0800F550640AD8B41BD095
:106BC8006250030DB30E5A6E7F0E5B6EF3505A2659
:106BD800F4505B226350010DF3505A26F4505B22A7
:106BE8005AC0F6FF5BC0F7FF0800F5505F24616EDE
:106BF800615002EC29F0632AC6D7B4EC29F0340EB0
:106C08005A6EF20EE82EFED75A2EFCD7000E636E8F
:106C1800020E636401D036D06250030DB30E5A6E73
:106C28007F0E5B6EF3505A26F4505B226350010DC1
:106C3800F3505A26F4505B225AC0F6FF5BC0F7FFA8
:106C48000800F550640AD8B41BD06250030DB30E87
:106C58005A6E7F0E5B6EF3505A26F4505B226350D7
:106C6800010DF3505A26F4505B225AC0F6FF5BC060
:106C7800F7FF0800F5505F24616E615059EC29F068
:106C8800632AC6D7B4EC29F0622A77D7030E5E18B8
:106C9800D8A412005C50020F626E000E636E020EE2
:106CA800636401D036D06250030DB30E5A6E7F0E66
:106CB8005B6EF3505A26F4505B226350010DF3507B
:106CC8005A26F4505B225AC0F6FF5BC0F7FF080053
:106CD800F550640AD8B41BD06250030DB30E5A6E37
:106CE8007F0E5B6EF3505A26F4505B226350010D01
:106CF800F3505A26F4505B225AC0F6FF5BC0F7FFE8
:106D08000800F5505F24616E615002EC29F0632A97
:106D1800C6D7B4EC29F0340E5A6EF20EE82EFED720
:106D28005A2EFCD7000E636E020E636401D036D073
:106D38006250030DB30E5A6E7F0E5B6EF3505A26E7
:106D4800F4505B226350010DF3505A26F4505B2235
:106D58005AC0F6FF5BC0F7FF0800F550640AD8B4C4
:106D68001BD06250030DB30E5A6E7F0E5B6EF3504C
:106D78005A26F4505B226350010DF3505A26F45002
:106D88005B225AC0F6FF5BC0F7FF0800F5505F248E
:106D9800616E615059EC29F0632AC6D7B4EC29F02A
:106DA80062067BD75A6E000E5B6E000E5C6E5A5000
:106DB800D8A486D0000E5B6E090E5B6401D0120069
:106DC800000E5C6E070E5C6401D033D05B50080D7A
:106DD800E90E586E7D0E596EF3505826F45059221C
:106DE8005C50010DF3505826F450592258C0F6FF54
:106DF80059C0F7FF0800F550640AD8B418D05B50A2
:106E0800080DE90E586E7D0E596EF3505826F45051
:106E180059225C50010DF3505826F450592258C09D
:106E2800F6FF59C0F7FF0800F55002EC29F05C2A7C
:106E3800C9D7B4EC29F0270E586EF50EE82EFED708
:106E4800582EFCD700F0000E5C6E070E5C6401D073
:106E580033D05B50080DE90E586E7D0E596EF35015
:106E68005826F45059225C50010DF3505826F4501E
:106E7800592258C0F6FF59C0F7FF0800F550640AB8
:106E8800D8B418D05B50080DE90E586E7D0E596EB7
:106E9800F3505826F45059225C50010DF3505826EF
:106EA800F450592258C0F6FF59C0F7FF0800F550B2
:106EB80059EC29F05C2AC9D7B4EC29F05B2A7CD7B5
:106EC8005A04D8A486D0000E5B6E060E5B6401D00F
:106ED8001200000E5C6E050E5C6401D033D05B506E
:106EE800060D390E586E7F0E596EF3505826F45021
:106EF80059225C50010DF3505826F450592258C0BD
:106F0800F6FF59C0F7FF0800F550640AD8B418D046
:106F18005B50060D390E586E7F0E596EF350582689
:106F2800F45059225C50010DF3505826F450592260
:106F380058C0F6FF59C0F7FF0800F55002EC29F0D9
:106F48005C2AC9D7B4EC29F0270E586EF50EE82E46
:106F5800FED7582EFCD700F0000E5C6E050E5C6460
:106F680001D033D05B50060D390E586E7F0E596E26
:106F7800F3505826F45059225C50010DF35058260E
:106F8800F450592258C0F6FF59C0F7FF0800F550D1
:106F9800640AD8B418D05B50060D390E586E7F0EAF
:106FA800596EF3505826F45059225C50010DF35095
:106FB8005826F450592258C0F6FF59C0F7FF080068
:106FC800F55059EC29F05C2AC9D7B4EC29F05B2AB2
:106FD8007CD7020E5A18D8A486D0000E5B6E040E19
:106FE8005B6401D01200000E5C6E030E5C6401D07D
:106FF80033D05B50040DCB0E586E7F0E596EF35094
:107008005826F45059225C50010DF3505826F4507C
:10701800592258C0F6FF59C0F7FF0800F550640A16
:10702800D8B418D05B50040DCB0E586E7F0E596E35
:10703800F3505826F45059225C50010DF35058264D
:10704800F450592258C0F6FF59C0F7FF0800F55010
:1070580002EC29F05C2AC9D7B4EC29F0270E586E47
:10706800F50EE82EFED7582EFCD700F0000E5C6E09
:10707800030E5C6401D033D05B50040DCB0E586E08
:107088007F0E596EF3505826F45059225C50010D6A
:10709800F3505826F450592258C0F6FF59C0F7FF4C
:1070A8000800F550640AD8B418D05B50040DCB0E14
:1070B800586E7F0E596EF3505826F45059225C5082
:1070C800010DF3505826F450592258C0F6FF59C004
:1070D800F7FF0800F55059EC29F05C2AC9D7B4EC41
:1070E80029F05B2A7CD7030E5A18D8A41200030E85
:1070F8005B6E000E5C6E190E5C6401D033D05B5081
:107108001A0DC10E586E7C0E596EF3505826F45065
:1071180059225C50010DF3505826F450592258C09A
:10712800F6FF59C0F7FF0800F550640AD8B418D024
:107138005B501A0DC10E586E7C0E596EF3505826CE
:10714800F45059225C50010DF3505826F45059223E
:1071580058C0F6FF59C0F7FF0800F55002EC29F0B7
:107168005C2AC9D7B4EC29F0270E586EF50EE82E24
:10717800FED7582EFCD700F0000E5C6E190E5C642A
:1071880001D033D05B501A0DC10E586E7C0E596E6B
:10719800F3505826F45059225C50010DF3505826EC
:1071A800F450592258C0F6FF59C0F7FF0800F550AF
:1071B800640AD8B418D05B501A0DC10E586E7C0EF4
:1071C800596EF3505826F45059225C50010DF35073
:1071D8005826F450592258C0F6FF59C0F7FF080046
:1071E800F55059EC29F05C2AC9D7B4EC29F05B06B4
:1071F80080D7020E5B6401D01200000E5C6E190E7F
:107208005C6401D033D05B501A0DC10E586E7C0EF1
:10721800596EF3505826F45059225C50010DF35022
:107228005826F450592258C0F6FF59C0F7FF0800F5
:10723800F550640AD8B418D05B501A0DC10E586EB8
:107248007C0E596EF3505826F45059225C50010DAB
:10725800F3505826F450592258C0F6FF59C0F7FF8A
:107268000800F55002EC29F05C2AC9D7B4EC29F0E3
:10727800340E586EF20EE82EFED7582EFCD7000EAC
:107288005C6E190E5C6401D033D05B501A0DC10ED0
:10729800586E7C0E596EF3505826F45059225C50A3
:1072A800010DF3505826F450592258C0F6FF59C022
:1072B800F7FF0800F550640AD8B418D05B501A0DCF
:1072C800C10E586E7C0E596EF3505826F450592250
:1072D8005C50010DF3505826F450592258C0F6FF5F
:1072E80059C0F7FF0800F55059EC29F05C2AC9D7B6
:1072F800B4EC29F05B2A7DD7000E6B6E000E6C6E25
:10730800E00E0001806FE20E9D6FE40EBA6FE60E8C
:10731800D76F3CEC27F0080E6B6E800E6C6E6CC05D
:1073280043F06B505CEC27F0D3508F0B6009D36EA1
:10733800090EC86EC80E00D0E82EFDD7000E756E77
:10734800000E746E75BE06D075504BE1040E745C69
:10735800D8B047D045EC27F03EEC27F045EC27F0B5
:1073680074C043F075C044F0000E466E1D0E456EA5
:107378007CEC27F0800E4324D96E000E4420DA6E90
:10738800DF508FEC27F045EC27F0210E8FEC27F02B
:1073980045EC27F040EC27F045EC27F03EEC27F0D1
:1073A80045EC27F074C043F075C044F0000E466EFB
:1073B8001D0E456E7CEC27F0800E4324D96E000E1E
:1073C8004420DA6EDF508FEC27F045EC27F0810E71
:1073D8008FEC27F045EC27F040EC27F0744A752A2B
:1073E800B1D7000E6F6E000E6E6E000E706E000E3E
:1073F8006D6E000E736E000E756E000E746E75BEA7
:1074080006D0755037E1080E745CD8B033D0000E42
:10741800726E000E716E72BE06D0725028E1080EB0
:10742800715CD8B024D074C067F075C068F0D8908B
:1074380067366836D89067366836D89067366836C3
:10744800F90E696E7E0E6A6E6750692668506A2268
:107458007150692672506A2269C0F6FF6AC0F7FF48
:107468000800F55002EC29F0714A722AD4D7744A00
:10747800752AC5D7B4EC29F0410E676EEE0EE82EDA
:10748800FED7672EFCD700D0000E756E000E746E06
:1074980075BE06D075500AE1400E745CD8B006D0AF
:1074A800745059EC29F0744A752AF2D7B4EC29F0D3
:1074B800270E676EF50EE82EFED7672EFCD700F074
:1074C80001EC2BF00009D8B4F3D7000E736E3F0E11
:1074D800736401D08BD2735060EC28F00009D8B4E3
:1074E80083D27350B1EC28F00009D8A47DD2000EE5
:1074F800756E000E746E75BE06D0755031E1080EBB
:10750800745CD8B02DD074C067F075C068F0D8909E
:1075180067366836D89067366836D89067366836E2
:10752800070E6726000E6822F90E6724F66E7E0E97
:107538006820F76E0800F5507318D8A40ED0ED0E29
:107548007324436E446AFF0E4422000E466E040EF6
:10755800456E1EEC28F043506E6E744A752ACBD7E0
:10756800000E756E000E746E75BE06D0755041E142
:10757800080E745CD8B03DD0000E726E000E716EAD
:1075880072BE06D0725032E1080E715CD8B02ED0AF
:1075980074C067F075C068F0D89067366836D890C0
:1075A80067366836D89067366836F90E696E7E0E8B
:1075B8006A6E6750692668506A227150692672504F
:1075C8006A2269C0F6FF6AC0F7FF0800F550731811
:1075D800D8A409D0F90E7124F66E7E0E7220F76ECB
:1075E8000800F5CF6FF0714A722ACAD7744A752A13
:1075F800BBD7130E6F18D8A414D0000E756E000EEA
:10760800746E75BE06D075500AE1400E745CD8B031
:1076180006D0745059EC29F0744A752AF2D7B4ECA4
:1076280029F06E50D8A4AAD0130E6F18D8B4A6D0DB
:10763800000E756E000E746E75BE06D0755056E15C
:107648000E0E745CD8B052D08B0E7424F66E7F0E7A
:107658007520F76E0800F5507318D8A402D0010EF3
:107668003ED074C067F075C068F0671E681E674A30
:10767800682A270E6726000E68228B0E6724F66E8E
:107688007F0E6820F76E0800F5507318D8A402D052
:10769800020E25D0630E7424F66E7F0E7520F76EE9
:1076A8000800F5507318D8A402D0030E18D074C07F
:1076B80067F075C068F0671E681E674A682A270E5B
:1076C8006726000E6822630E6724F66E7F0E682018
:1076D800F76E0800F5507318D8A405D0040E706E24
:1076E80074C06DF003D0744A752AA6D7000E756E63
:1076F800000E746E75BE06D075503AE1020E745CC9
:10770800D8B036D0000E726E000E716E72BE06D002
:1077180072502BE1080E715CD8B027D074C043F0CA
:1077280075C044F0000E466E140E456E7CEC27F0D2
:10773800D50E676E7B0E686E4350672644506822EC
:10774800715067267250682267C0F6FF68C0F7FF5D
:107758000800F5507318D8A405D0050E706E74C0D3
:107768006DF003D0714A722AD1D7744A752AC2D7EC
:107778006DC058F070505DEC2DF036D16E04D8A471
:1077880018D0130E6F18D8B414D073C043F0446ADD
:10779800000E466E100E456E1EEC28F04350706EBB
:1077A80073500F0B6D6E6DC058F070504EEC2AF090
:1077B8001BD1020E6E18D8A41AD0130E6F18D8B4A5
:1077C80016D073C043F0446A000E466E100E456E24
:1077D8001EEC28F04350706E73500F0B6D6E6DC029
:1077E80058F073C059F0705059EC34F0FDD0030EC6
:1077F8006E18D8A465D0130E6F18D8B461D0000ED7
:10780800756E000E746E75BE06D0755055E1040E87
:10781800745CD8B051D0000E726E000E716E72BEDC
:1078280006D0725046E11A0E715CD8B042D074C0CE
:1078380043F075C044F0000E466E1A0E456E7CEC9F
:1078480027F0C10E676E7C0E686E43506726445061
:107858006822715067267250682267C0F6FF68C0B8
:10786800F7FF0800F550640AD8B420D074C043F07C
:1078780075C044F0000E466E1A0E456E7CEC27F07B
:10788800C10E676E7C0E686E4350672644506822AE
:10789800715067267250682267C0F6FF68C0F7FF0C
:1078A8000800F5507318D8B474C070F0714A722A81
:1078B800B6D7744A752AA7D77050D6EC36F094D04C
:1078C800080E6E18D8A415D0130E6F18D8B411D09E
:1078D80073C043F0446A000E466E100E456E1EECEF
:1078E80028F04350706E73C058F0705025EC32F099
:1078F8007BD0090E6E18D8A41AD0130E6F18D8B4FE
:1079080016D073C043F0446A000E466E100E456EE2
:107918001EEC28F04350706E73500F0B6D6E6DC0E7
:1079280058F073C059F07050D7EC2EF05DD00A0EA5
:107938006E18D8A44ED0130E6F18D8B44AD0000EC3
:10794800756E000E746E75BE06D075503CE1080E5B
:10795800745CD8B038D0000E726E000E716E72BEB4
:1079680006D072502DE1080E715CD8B029D074C0D1
:1079780067F075C068F0D89067366836D890673673
:107988006836D89067366836F90E696E7E0E6A6E6C
:107998006750692668506A227150692672506A22B7
:1079A80069C0F6FF6AC0F7FF0800F5507318D8A43D
:1079B80004D074C070F071C06DF0714A722ACFD7CC
:1079C800744A752AC0D76DC058F07050F4EC2BF08B
:1079D8000BD00B0E6E18D8A407D0130E6F18D8B49E
:1079E80003D073505FEC30F0732A71D5B4EC29F0F2
:1079F8005FD5FFD700006464640104056406090AC2
:107A0800640B0E0F640164646400020564040609D3
:107A180064080A0D64026464640103066405070AC5
:107A280064090B0E64036464640206076405090AAA
:107A380064080C0D640464646400050864010609A4
:107A48006402070A640564646401040609070D6496
:107A58006464646464066464640205070A040E646A
:107A680064646464640764646403060B6402050A5E
:107A780064010409640864646404090C64050A0D5B
:107A880064060B0E640964646405080A0D010B643E
:107A980064646464640A64646406090B0E0208641E
:107AA80064646464640B646464070A0F6406090E02
:107AB8006405080D640C64646408090D6405060A0D
:107AC80064020307640D646464090C0E6405080A03
:107AD80064010406640E6464640A0D0F6406090BED
:107AE80064020507640F6464640A0B0E64050609E2
:107AF800640001046400050A0F1316191C232629C3
:107B08002C30353A3F646464646464646404090E28
:107B18002330272A2D1C31363B0F18151264646454
:107B28006464646464031006070A0B0C2021252290
:107B3800262F3C383934351F331A1E191D031006F9
:107B4800070A0C202125262F3C3839351F331E19EA
:107B58001A0F1C2330020305060B18202425290EB2
:107B6800223C3D393A34271B1F161A1D31000105E6
:107B7800060A1317161A19282C2529263E3F393AC2
:107B88003564646464000106282C25393E3F1317C8
:107B98001A646464646464646464646464000128EA
:107BA8002C3E3F13176464646464646464646464AE
:107BB8006464646464002C3F13646464646464648F
:107BC800646464646464646464646464640F1C234B
:107BD8003064646464646464646464646464646491
:107BE800640B0E2227181D31346464646464646471
:107BF80064646464640A0B18190E22262734351D40
:107C0800316464646464646464070A0D21262B1477
:107C1800191E323538646464646464646405060754
:107C2800141516090D2125292A2B38393A1A1E321E
:107C38003602050824292E373A3D11161B64646460
:107C480064646464640F1C233064646464646464FE
:107C580064646464646464646464646464646464DC
:107C680064640A0B0E2226273435311D19180B645B
:107C7800646464646464646464646464646464051B
:107C880006071415090D2125292A2B38393A3632C9
:107C98001E1A166464646464646464640001020304
:107CA8001011121304080C2024282C2D2E2F3C3DD3
:107CB8003E3F171B1F33373B3F00010203101112D1
:107CC800161A1E32363A04080C2024282C2D2E2F82
:107CD8003C3D3E0506071415191D313539090D219E
:107CE80025292A2B3864646464646464640A0B1864
:107CF8001C0E2226273430646464646464646464FB
:107D0800646464646464640F2364646464646464C1
:107D1800646464646464646464646464646464641B
:107D280064373A3D3B3E3F64643336393C373A3D2D
:107D3800641F3235383336393C1B1E31341F323517
:107D480038171A1D301B1E31341316191C171A1D2B
:107D5800301215180F1316191C11140B0E121518C2
:107D68000F10070A0D11140B0E0306090C10070A51
:107D78000D0205080306090C6400010204050864E5
:107D88006400010204050864640205080306090C7E
:107D9800640306090C070A0D20070A0D200B0E21A3
:107DA800240B0E21240F2225280F222528232629DB
:107DB8002C2326292C30272A2D30272A2D31342B05
:107DC8002E31342B2E3235382F3235382F33363981
:107DD8003C3336393C373A3D64373A3D3B3E3F64A5
:107DE80064000102032F3C3D3E010203102E2F3C8C
:107DF8003D020310112D2E2F3C031011122C2D2E95
:107E08002F10111216282C2D2E1112161A24282C78
:107E18002D12161A1E2024282C161A1E320C202465
:107E2800281A1E3236080C20241E32363A04080C52
:107E380020000104050102050602030607030710D6
:107E480014040508090506090A06070A0B070B1496
:107E58001808090C0D090A0D0E0A0B0E0F0B180F46
:107E68001C0C0D20210D0E21220E0F22230F1C2386
:107E780030132C6464646464641217282D64646489
:107E88006411161B24292E646410151A1F20252A34
:107E98002F0314191E21262B0C0207181D080D226A
:107EA8002701060B1C04090E2300050A0F646464ED
:107EB80064132C6464646464641217282D64646415
:107EC8006411161B24292E646410151A1F20252AF4
:107ED8002F14191E3321262B3C181D323722273820
:107EE8003D1C31363B2334393E30353A3F646464B7
:107EF8006400010203101112130405060714151675
:107F08001708090A0B18191A1B0C0D0E0F1C1D1E39
:107F18001F202122233031323324252627343536B9
:107F28003728292A2B38393A3B2C2D2E2F3C3D3E19
:107F38003F0506072B38390607142A2B380714156E
:107F4800292A2B14151925292A15191D212529191E
:107F58001D310D21251D3135090D210004080C2086
:107F680024282C2925210D09050A0E2226230F1C59
:107F78003035311D19161A1E32363A3F3B37331F3A
:107F88001B1713000102031011121316151407060C
:107F9800050A0B18191C0F233035342726292A2BDC
:107FA80038393A3F3E3D3C2F2E2D2C00010201026C
:107FB800030203100310111011121112131213648B
:107FC8001364640A0B27340B182627181C22261C56
:107FD800300E220A0E30340704022205060001037F
:107FE800103021131211313A373534282923241639
:087FF8001B11100E0D0C02001C
:020000040020DA
:08000000FFFFFFFFFFFFFFFF00
:020000040030CA
:0E000000FF881F00FF8381FF0FC00FE00F403D
:00000001FF
